{
  "_format": "hh-sol-artifact-1",
  "contractName": "ERC20Token",
  "sourceName": "contracts/ERC20.sol",
  "abi": [
    {
      "inputs": [
        {
          "internalType": "string",
          "name": "_name",
          "type": "string"
        },
        {
          "internalType": "string",
          "name": "_symbol",
          "type": "string"
        },
        {
          "internalType": "uint256",
          "name": "_initialSupply",
          "type": "uint256"
        }
      ],
      "stateMutability": "nonpayable",
      "type": "constructor"
    },
    {
      "anonymous": false,
      "inputs": [
        {
          "indexed": true,
          "internalType": "address",
          "name": "owner_",
          "type": "address"
        },
        {
          "indexed": true,
          "internalType": "address",
          "name": "spender",
          "type": "address"
        },
        {
          "indexed": false,
          "internalType": "uint256",
          "name": "value",
          "type": "uint256"
        }
      ],
      "name": "Approval",
      "type": "event"
    },
    {
      "anonymous": false,
      "inputs": [
        {
          "indexed": true,
          "internalType": "address",
          "name": "from",
          "type": "address"
        },
        {
          "indexed": true,
          "internalType": "address",
          "name": "to",
          "type": "address"
        },
        {
          "indexed": false,
          "internalType": "uint256",
          "name": "value",
          "type": "uint256"
        }
      ],
      "name": "Transfer",
      "type": "event"
    },
    {
      "inputs": [
        {
          "internalType": "address",
          "name": "",
          "type": "address"
        },
        {
          "internalType": "address",
          "name": "",
          "type": "address"
        }
      ],
      "name": "allowance",
      "outputs": [
        {
          "internalType": "uint256",
          "name": "",
          "type": "uint256"
        }
      ],
      "stateMutability": "view",
      "type": "function"
    },
    {
      "inputs": [
        {
          "internalType": "address",
          "name": "spender",
          "type": "address"
        },
        {
          "internalType": "uint256",
          "name": "amount",
          "type": "uint256"
        }
      ],
      "name": "approve",
      "outputs": [
        {
          "internalType": "bool",
          "name": "",
          "type": "bool"
        }
      ],
      "stateMutability": "nonpayable",
      "type": "function"
    },
    {
      "inputs": [
        {
          "internalType": "address",
          "name": "",
          "type": "address"
        }
      ],
      "name": "balanceOf",
      "outputs": [
        {
          "internalType": "uint256",
          "name": "",
          "type": "uint256"
        }
      ],
      "stateMutability": "view",
      "type": "function"
    },
    {
      "inputs": [],
      "name": "decimals",
      "outputs": [
        {
          "internalType": "uint8",
          "name": "",
          "type": "uint8"
        }
      ],
      "stateMutability": "view",
      "type": "function"
    },
    {
      "inputs": [
        {
          "internalType": "address",
          "name": "to",
          "type": "address"
        },
        {
          "internalType": "uint256",
          "name": "amount",
          "type": "uint256"
        }
      ],
      "name": "mint",
      "outputs": [],
      "stateMutability": "nonpayable",
      "type": "function"
    },
    {
      "inputs": [],
      "name": "name",
      "outputs": [
        {
          "internalType": "string",
          "name": "",
          "type": "string"
        }
      ],
      "stateMutability": "view",
      "type": "function"
    },
    {
      "inputs": [],
      "name": "owner",
      "outputs": [
        {
          "internalType": "address",
          "name": "",
          "type": "address"
        }
      ],
      "stateMutability": "view",
      "type": "function"
    },
    {
      "inputs": [],
      "name": "symbol",
      "outputs": [
        {
          "internalType": "string",
          "name": "",
          "type": "string"
        }
      ],
      "stateMutability": "view",
      "type": "function"
    },
    {
      "inputs": [],
      "name": "totalSupply",
      "outputs": [
        {
          "internalType": "uint256",
          "name": "",
          "type": "uint256"
        }
      ],
      "stateMutability": "view",
      "type": "function"
    },
    {
      "inputs": [
        {
          "internalType": "address",
          "name": "to",
          "type": "address"
        },
        {
          "internalType": "uint256",
          "name": "amount",
          "type": "uint256"
        }
      ],
      "name": "transfer",
      "outputs": [
        {
          "internalType": "bool",
          "name": "",
          "type": "bool"
        }
      ],
      "stateMutability": "nonpayable",
      "type": "function"
    },
    {
      "inputs": [
        {
          "internalType": "address",
          "name": "from",
          "type": "address"
        },
        {
          "internalType": "address",
          "name": "to",
          "type": "address"
        },
        {
          "internalType": "uint256",
          "name": "amount",
          "type": "uint256"
        }
      ],
      "name": "transferFrom",
      "outputs": [
        {
          "internalType": "bool",
          "name": "",
          "type": "bool"
        }
      ],
      "stateMutability": "nonpayable",
      "type": "function"
    },
    {
      "inputs": [
        {
          "internalType": "address",
          "name": "newOwner",
          "type": "address"
        }
      ],
      "name": "transferOwnership",
      "outputs": [],
      "stateMutability": "nonpayable",
      "type": "function"
    }
  ],
  "bytecode": "0x60806040523480156200001157600080fd5b5060405162001d2338038062001d23833981810160405281019062000037919062000373565b82600090816200004891906200064e565b5081600190816200005a91906200064e565b5033600360006101000a81548173ffffffffffffffffffffffffffffffffffffffff021916908373ffffffffffffffffffffffffffffffffffffffff1602179055506000601260ff16600a620000b19190620008b8565b82620000be919062000909565b90508060026000828254620000d4919062000954565b9250508190555080600460003373ffffffffffffffffffffffffffffffffffffffff1673ffffffffffffffffffffffffffffffffffffffff16815260200190815260200160002060008282546200012c919062000954565b925050819055503373ffffffffffffffffffffffffffffffffffffffff16600073ffffffffffffffffffffffffffffffffffffffff167fddf252ad1be2c89b69c2b068fc378daa952ba7f163c4a11628f55a4df523b3ef83604051620001939190620009a0565b60405180910390a350505050620009bd565b6000604051905090565b600080fd5b600080fd5b600080fd5b600080fd5b6000601f19601f8301169050919050565b7f4e487b7100000000000000000000000000000000000000000000000000000000600052604160045260246000fd5b6200020e82620001c3565b810181811067ffffffffffffffff8211171562000230576200022f620001d4565b5b80604052505050565b600062000245620001a5565b905062000253828262000203565b919050565b600067ffffffffffffffff821115620002765762000275620001d4565b5b6200028182620001c3565b9050602081019050919050565b60005b83811015620002ae57808201518184015260208101905062000291565b60008484015250505050565b6000620002d1620002cb8462000258565b62000239565b905082815260208101848484011115620002f057620002ef620001be565b5b620002fd8482856200028e565b509392505050565b600082601f8301126200031d576200031c620001b9565b5b81516200032f848260208601620002ba565b91505092915050565b6000819050919050565b6200034d8162000338565b81146200035957600080fd5b50565b6000815190506200036d8162000342565b92915050565b6000806000606084860312156200038f576200038e620001af565b5b600084015167ffffffffffffffff811115620003b057620003af620001b4565b5b620003be8682870162000305565b935050602084015167ffffffffffffffff811115620003e257620003e1620001b4565b5b620003f08682870162000305565b925050604062000403868287016200035c565b9150509250925092565b600081519050919050565b7f4e487b7100000000000000000000000000000000000000000000000000000000600052602260045260246000fd5b600060028204905060018216806200046057607f821691505b60208210810362000476576200047562000418565b5b50919050565b60008190508160005260206000209050919050565b60006020601f8301049050919050565b600082821b905092915050565b600060088302620004e07fffffffffffffffffffffffffffffffffffffffffffffffffffffffffffffffff82620004a1565b620004ec8683620004a1565b95508019841693508086168417925050509392505050565b6000819050919050565b60006200052f62000529620005238462000338565b62000504565b62000338565b9050919050565b6000819050919050565b6200054b836200050e565b620005636200055a8262000536565b848454620004ae565b825550505050565b600090565b6200057a6200056b565b6200058781848462000540565b505050565b5b81811015620005af57620005a360008262000570565b6001810190506200058d565b5050565b601f821115620005fe57620005c8816200047c565b620005d38462000491565b81016020851015620005e3578190505b620005fb620005f28562000491565b8301826200058c565b50505b505050565b600082821c905092915050565b6000620006236000198460080262000603565b1980831691505092915050565b60006200063e838362000610565b9150826002028217905092915050565b62000659826200040d565b67ffffffffffffffff811115620006755762000674620001d4565b5b62000681825462000447565b6200068e828285620005b3565b600060209050601f831160018114620006c65760008415620006b1578287015190505b620006bd858262000630565b8655506200072d565b601f198416620006d6866200047c565b60005b828110156200070057848901518255600182019150602085019450602081019050620006d9565b868310156200072057848901516200071c601f89168262000610565b8355505b6001600288020188555050505b505050505050565b7f4e487b7100000000000000000000000000000000000000000000000000000000600052601160045260246000fd5b60008160011c9050919050565b6000808291508390505b6001851115620007c3578086048111156200079b576200079a62000735565b5b6001851615620007ab5780820291505b8081029050620007bb8562000764565b94506200077b565b94509492505050565b600082620007de5760019050620008b1565b81620007ee5760009050620008b1565b8160018114620008075760028114620008125762000848565b6001915050620008b1565b60ff84111562000827576200082662000735565b5b8360020a91508482111562000841576200084062000735565b5b50620008b1565b5060208310610133831016604e8410600b8410161715620008825782820a9050838111156200087c576200087b62000735565b5b620008b1565b62000891848484600162000771565b92509050818404811115620008ab57620008aa62000735565b5b81810290505b9392505050565b6000620008c58262000338565b9150620008d28362000338565b9250620009017fffffffffffffffffffffffffffffffffffffffffffffffffffffffffffffffff8484620007cc565b905092915050565b6000620009168262000338565b9150620009238362000338565b9250828202620009338162000338565b915082820484148315176200094d576200094c62000735565b5b5092915050565b6000620009618262000338565b91506200096e8362000338565b925082820190508082111562000989576200098862000735565b5b92915050565b6200099a8162000338565b82525050565b6000602082019050620009b760008301846200098f565b92915050565b61135680620009cd6000396000f3fe608060405234801561001057600080fd5b50600436106100b45760003560e01c806370a082311161007157806370a082311461018f5780638da5cb5b146101bf57806395d89b41146101dd578063a9059cbb146101fb578063dd62ed3e1461022b578063f2fde38b1461025b576100b4565b806306fdde03146100b9578063095ea7b3146100d757806318160ddd1461010757806323b872dd14610125578063313ce5671461015557806340c10f1914610173575b600080fd5b6100c1610277565b6040516100ce9190610c93565b60405180910390f35b6100f160048036038101906100ec9190610d4e565b610305565b6040516100fe9190610da9565b60405180910390f35b61010f6103f7565b60405161011c9190610dd3565b60405180910390f35b61013f600480360381019061013a9190610dee565b6103fd565b60405161014c9190610da9565b60405180910390f35b61015d610565565b60405161016a9190610e5d565b60405180910390f35b61018d60048036038101906101889190610d4e565b61056a565b005b6101a960048036038101906101a49190610e78565b610742565b6040516101b69190610dd3565b60405180910390f35b6101c761075a565b6040516101d49190610eb4565b60405180910390f35b6101e5610780565b6040516101f29190610c93565b60405180910390f35b61021560048036038101906102109190610d4e565b61080e565b6040516102229190610da9565b60405180910390f35b61024560048036038101906102409190610ecf565b610825565b6040516102529190610dd3565b60405180910390f35b61027560048036038101906102709190610e78565b61084a565b005b6000805461028490610f3e565b80601f01602080910402602001604051908101604052809291908181526020018280546102b090610f3e565b80156102fd5780601f106102d2576101008083540402835291602001916102fd565b820191906000526020600020905b8154815290600101906020018083116102e057829003601f168201915b505050505081565b600081600560003373ffffffffffffffffffffffffffffffffffffffff1673ffffffffffffffffffffffffffffffffffffffff16815260200190815260200160002060008573ffffffffffffffffffffffffffffffffffffffff1673ffffffffffffffffffffffffffffffffffffffff168152602001908152602001600020819055508273ffffffffffffffffffffffffffffffffffffffff163373ffffffffffffffffffffffffffffffffffffffff167f8c5be1e5ebec7d5bd14f71427d1e84f3dd0314c0f7b2291e5b200ac8c7c3b925846040516103e59190610dd3565b60405180910390a36001905092915050565b60025481565b600080600560008673ffffffffffffffffffffffffffffffffffffffff1673ffffffffffffffffffffffffffffffffffffffff16815260200190815260200160002060003373ffffffffffffffffffffffffffffffffffffffff1673ffffffffffffffffffffffffffffffffffffffff168152602001908152602001600020549050828110156104c2576040517f08c379a00000000000000000000000000000000000000000000000000000000081526004016104b990610fbb565b60405180910390fd5b82816104ce919061100a565b600560008773ffffffffffffffffffffffffffffffffffffffff1673ffffffffffffffffffffffffffffffffffffffff16815260200190815260200160002060003373ffffffffffffffffffffffffffffffffffffffff1673ffffffffffffffffffffffffffffffffffffffff1681526020019081526020016000208190555061055985858561098d565b60019150509392505050565b601281565b600360009054906101000a900473ffffffffffffffffffffffffffffffffffffffff1673ffffffffffffffffffffffffffffffffffffffff163373ffffffffffffffffffffffffffffffffffffffff16146105fa576040517f08c379a00000000000000000000000000000000000000000000000000000000081526004016105f19061108a565b60405180910390fd5b600073ffffffffffffffffffffffffffffffffffffffff168273ffffffffffffffffffffffffffffffffffffffff1603610669576040517f08c379a0000000000000000000000000000000000000000000000000000000008152600401610660906110f6565b60405180910390fd5b806002600082825461067b9190611116565b9250508190555080600460008473ffffffffffffffffffffffffffffffffffffffff1673ffffffffffffffffffffffffffffffffffffffff16815260200190815260200160002060008282546106d19190611116565b925050819055508173ffffffffffffffffffffffffffffffffffffffff16600073ffffffffffffffffffffffffffffffffffffffff167fddf252ad1be2c89b69c2b068fc378daa952ba7f163c4a11628f55a4df523b3ef836040516107369190610dd3565b60405180910390a35050565b60046020528060005260406000206000915090505481565b600360009054906101000a900473ffffffffffffffffffffffffffffffffffffffff1681565b6001805461078d90610f3e565b80601f01602080910402602001604051908101604052809291908181526020018280546107b990610f3e565b80156108065780601f106107db57610100808354040283529160200191610806565b820191906000526020600020905b8154815290600101906020018083116107e957829003601f168201915b505050505081565b600061081b33848461098d565b6001905092915050565b6005602052816000526040600020602052806000526040600020600091509150505481565b600360009054906101000a900473ffffffffffffffffffffffffffffffffffffffff1673ffffffffffffffffffffffffffffffffffffffff163373ffffffffffffffffffffffffffffffffffffffff16146108da576040517f08c379a00000000000000000000000000000000000000000000000000000000081526004016108d19061108a565b60405180910390fd5b600073ffffffffffffffffffffffffffffffffffffffff168173ffffffffffffffffffffffffffffffffffffffff1603610949576040517f08c379a000000000000000000000000000000000000000000000000000000000815260040161094090611196565b60405180910390fd5b80600360006101000a81548173ffffffffffffffffffffffffffffffffffffffff021916908373ffffffffffffffffffffffffffffffffffffffff16021790555050565b600073ffffffffffffffffffffffffffffffffffffffff168373ffffffffffffffffffffffffffffffffffffffff16036109fc576040517f08c379a00000000000000000000000000000000000000000000000000000000081526004016109f390611228565b60405180910390fd5b600073ffffffffffffffffffffffffffffffffffffffff168273ffffffffffffffffffffffffffffffffffffffff1603610a6b576040517f08c379a0000000000000000000000000000000000000000000000000000000008152600401610a6290611294565b60405180910390fd5b80600460008573ffffffffffffffffffffffffffffffffffffffff1673ffffffffffffffffffffffffffffffffffffffff168152602001908152602001600020541015610aed576040517f08c379a0000000000000000000000000000000000000000000000000000000008152600401610ae490611300565b60405180910390fd5b80600460008573ffffffffffffffffffffffffffffffffffffffff1673ffffffffffffffffffffffffffffffffffffffff1681526020019081526020016000206000828254610b3c919061100a565b9250508190555080600460008473ffffffffffffffffffffffffffffffffffffffff1673ffffffffffffffffffffffffffffffffffffffff1681526020019081526020016000206000828254610b929190611116565b925050819055508173ffffffffffffffffffffffffffffffffffffffff168373ffffffffffffffffffffffffffffffffffffffff167fddf252ad1be2c89b69c2b068fc378daa952ba7f163c4a11628f55a4df523b3ef83604051610bf69190610dd3565b60405180910390a3505050565b600081519050919050565b600082825260208201905092915050565b60005b83811015610c3d578082015181840152602081019050610c22565b60008484015250505050565b6000601f19601f8301169050919050565b6000610c6582610c03565b610c6f8185610c0e565b9350610c7f818560208601610c1f565b610c8881610c49565b840191505092915050565b60006020820190508181036000830152610cad8184610c5a565b905092915050565b600080fd5b600073ffffffffffffffffffffffffffffffffffffffff82169050919050565b6000610ce582610cba565b9050919050565b610cf581610cda565b8114610d0057600080fd5b50565b600081359050610d1281610cec565b92915050565b6000819050919050565b610d2b81610d18565b8114610d3657600080fd5b50565b600081359050610d4881610d22565b92915050565b60008060408385031215610d6557610d64610cb5565b5b6000610d7385828601610d03565b9250506020610d8485828601610d39565b9150509250929050565b60008115159050919050565b610da381610d8e565b82525050565b6000602082019050610dbe6000830184610d9a565b92915050565b610dcd81610d18565b82525050565b6000602082019050610de86000830184610dc4565b92915050565b600080600060608486031215610e0757610e06610cb5565b5b6000610e1586828701610d03565b9350506020610e2686828701610d03565b9250506040610e3786828701610d39565b9150509250925092565b600060ff82169050919050565b610e5781610e41565b82525050565b6000602082019050610e726000830184610e4e565b92915050565b600060208284031215610e8e57610e8d610cb5565b5b6000610e9c84828501610d03565b91505092915050565b610eae81610cda565b82525050565b6000602082019050610ec96000830184610ea5565b92915050565b60008060408385031215610ee657610ee5610cb5565b5b6000610ef485828601610d03565b9250506020610f0585828601610d03565b9150509250929050565b7f4e487b7100000000000000000000000000000000000000000000000000000000600052602260045260246000fd5b60006002820490506001821680610f5657607f821691505b602082108103610f6957610f68610f0f565b5b50919050565b7f45524332303a20696e73756666696369656e7420616c6c6f77616e6365000000600082015250565b6000610fa5601d83610c0e565b9150610fb082610f6f565b602082019050919050565b60006020820190508181036000830152610fd481610f98565b9050919050565b7f4e487b7100000000000000000000000000000000000000000000000000000000600052601160045260246000fd5b600061101582610d18565b915061102083610d18565b925082820390508181111561103857611037610fdb565b5b92915050565b7f45524332303a2063616c6c6572206973206e6f74206f776e6572000000000000600082015250565b6000611074601a83610c0e565b915061107f8261103e565b602082019050919050565b600060208201905081810360008301526110a381611067565b9050919050565b7f45524332303a206d696e7420746f207a65726f20616464726573730000000000600082015250565b60006110e0601b83610c0e565b91506110eb826110aa565b602082019050919050565b6000602082019050818103600083015261110f816110d3565b9050919050565b600061112182610d18565b915061112c83610d18565b925082820190508082111561114457611143610fdb565b5b92915050565b7f45524332303a206e6577206f776e6572206973207a65726f2061646472657373600082015250565b6000611180602083610c0e565b915061118b8261114a565b602082019050919050565b600060208201905081810360008301526111af81611173565b9050919050565b7f45524332303a207472616e736665722066726f6d207a65726f2061646472657360008201527f7300000000000000000000000000000000000000000000000000000000000000602082015250565b6000611212602183610c0e565b915061121d826111b6565b604082019050919050565b6000602082019050818103600083015261124181611205565b9050919050565b7f45524332303a207472616e7366657220746f207a65726f206164647265737300600082015250565b600061127e601f83610c0e565b915061128982611248565b602082019050919050565b600060208201905081810360008301526112ad81611271565b9050919050565b7f45524332303a20696e73756666696369656e742062616c616e63650000000000600082015250565b60006112ea601b83610c0e565b91506112f5826112b4565b602082019050919050565b60006020820190508181036000830152611319816112dd565b905091905056fea2646970667358221220d61f6bb2d78b054ad30e1ed59794d58e3f3b175f2058dfb73abe45d05a4fee6b64736f6c63430008130033",
  "linkReferences": {},
  "deployedLinkReferences": {}
}