{
  "_format": "hh-sol-artifact-1",
  "contractName": "StakingContract",
  "sourceName": "contracts/StakingContract .sol",
  "abi": [
    {
      "inputs": [
        {
          "internalType": "address",
          "name": "_token",
          "type": "address"
        },
        {
          "internalType": "uint256",
          "name": "_rewardRateBPS",
          "type": "uint256"
        }
      ],
      "stateMutability": "nonpayable",
      "type": "constructor"
    },
    {
      "anonymous": false,
      "inputs": [
        {
          "indexed": false,
          "internalType": "uint256",
          "name": "oldRate",
          "type": "uint256"
        },
        {
          "indexed": false,
          "internalType": "uint256",
          "name": "newRate",
          "type": "uint256"
        }
      ],
      "name": "RewardRateSet",
      "type": "event"
    },
    {
      "anonymous": false,
      "inputs": [
        {
          "indexed": true,
          "internalType": "address",
          "name": "user",
          "type": "address"
        },
        {
          "indexed": false,
          "internalType": "uint256",
          "name": "reward",
          "type": "uint256"
        }
      ],
      "name": "RewardsClaimed",
      "type": "event"
    },
    {
      "anonymous": false,
      "inputs": [
        {
          "indexed": true,
          "internalType": "address",
          "name": "user",
          "type": "address"
        },
        {
          "indexed": false,
          "internalType": "uint256",
          "name": "amount",
          "type": "uint256"
        }
      ],
      "name": "Staked",
      "type": "event"
    },
    {
      "anonymous": false,
      "inputs": [
        {
          "indexed": true,
          "internalType": "address",
          "name": "user",
          "type": "address"
        },
        {
          "indexed": false,
          "internalType": "uint256",
          "name": "amount",
          "type": "uint256"
        }
      ],
      "name": "Withdrawn",
      "type": "event"
    },
    {
      "inputs": [],
      "name": "BPS_DENOMINATOR",
      "outputs": [
        {
          "internalType": "uint256",
          "name": "",
          "type": "uint256"
        }
      ],
      "stateMutability": "view",
      "type": "function"
    },
    {
      "inputs": [],
      "name": "Owner",
      "outputs": [
        {
          "internalType": "address",
          "name": "",
          "type": "address"
        }
      ],
      "stateMutability": "view",
      "type": "function"
    },
    {
      "inputs": [],
      "name": "SECONDS_PER_YEAR",
      "outputs": [
        {
          "internalType": "uint256",
          "name": "",
          "type": "uint256"
        }
      ],
      "stateMutability": "view",
      "type": "function"
    },
    {
      "inputs": [
        {
          "internalType": "uint256",
          "name": "amount",
          "type": "uint256"
        }
      ],
      "name": "Withdraw",
      "outputs": [],
      "stateMutability": "nonpayable",
      "type": "function"
    },
    {
      "inputs": [],
      "name": "claimRewards",
      "outputs": [],
      "stateMutability": "nonpayable",
      "type": "function"
    },
    {
      "inputs": [
        {
          "internalType": "address",
          "name": "user",
          "type": "address"
        }
      ],
      "name": "getDashboardData",
      "outputs": [
        {
          "internalType": "uint256",
          "name": "stakeAmount",
          "type": "uint256"
        },
        {
          "internalType": "uint256",
          "name": "availableReward",
          "type": "uint256"
        },
        {
          "internalType": "uint256",
          "name": "currentAPR_BPS",
          "type": "uint256"
        },
        {
          "internalType": "uint256",
          "name": "totalStakedGlobal",
          "type": "uint256"
        }
      ],
      "stateMutability": "view",
      "type": "function"
    },
    {
      "inputs": [
        {
          "internalType": "address",
          "name": "user",
          "type": "address"
        }
      ],
      "name": "getStakeInfo",
      "outputs": [
        {
          "internalType": "uint256",
          "name": "stakeAmount",
          "type": "uint256"
        },
        {
          "internalType": "uint256",
          "name": "rewardDebt",
          "type": "uint256"
        },
        {
          "internalType": "uint256",
          "name": "lastUpdateTime",
          "type": "uint256"
        },
        {
          "internalType": "uint256",
          "name": "pendingRewards",
          "type": "uint256"
        }
      ],
      "stateMutability": "view",
      "type": "function"
    },
    {
      "inputs": [],
      "name": "pauseRewards",
      "outputs": [],
      "stateMutability": "nonpayable",
      "type": "function"
    },
    {
      "inputs": [
        {
          "internalType": "address",
          "name": "user",
          "type": "address"
        }
      ],
      "name": "pendingReward",
      "outputs": [
        {
          "internalType": "uint256",
          "name": "",
          "type": "uint256"
        }
      ],
      "stateMutability": "view",
      "type": "function"
    },
    {
      "inputs": [],
      "name": "rewardRateBPS",
      "outputs": [
        {
          "internalType": "uint256",
          "name": "",
          "type": "uint256"
        }
      ],
      "stateMutability": "view",
      "type": "function"
    },
    {
      "inputs": [
        {
          "internalType": "uint256",
          "name": "newRateBPS",
          "type": "uint256"
        }
      ],
      "name": "setRewardRate",
      "outputs": [],
      "stateMutability": "nonpayable",
      "type": "function"
    },
    {
      "inputs": [
        {
          "internalType": "uint256",
          "name": "amount",
          "type": "uint256"
        }
      ],
      "name": "stake",
      "outputs": [],
      "stateMutability": "nonpayable",
      "type": "function"
    },
    {
      "inputs": [],
      "name": "stakingToken",
      "outputs": [
        {
          "internalType": "contract IERC20",
          "name": "",
          "type": "address"
        }
      ],
      "stateMutability": "view",
      "type": "function"
    },
    {
      "inputs": [],
      "name": "totalStaked",
      "outputs": [
        {
          "internalType": "uint256",
          "name": "",
          "type": "uint256"
        }
      ],
      "stateMutability": "view",
      "type": "function"
    },
    {
      "inputs": [
        {
          "internalType": "address",
          "name": "newOwner",
          "type": "address"
        }
      ],
      "name": "transferOwnership",
      "outputs": [],
      "stateMutability": "nonpayable",
      "type": "function"
    }
  ],
  "bytecode": "0x60a06040523480156200001157600080fd5b506040516200193a3803806200193a8339818101604052810190620000379190620001d1565b600073ffffffffffffffffffffffffffffffffffffffff168273ffffffffffffffffffffffffffffffffffffffff1603620000a9576040517f08c379a0000000000000000000000000000000000000000000000000000000008152600401620000a09062000279565b60405180910390fd5b8173ffffffffffffffffffffffffffffffffffffffff1660808173ffffffffffffffffffffffffffffffffffffffff168152505080600181905550336000806101000a81548173ffffffffffffffffffffffffffffffffffffffff021916908373ffffffffffffffffffffffffffffffffffffffff16021790555050506200029b565b600080fd5b600073ffffffffffffffffffffffffffffffffffffffff82169050919050565b60006200015e8262000131565b9050919050565b620001708162000151565b81146200017c57600080fd5b50565b600081519050620001908162000165565b92915050565b6000819050919050565b620001ab8162000196565b8114620001b757600080fd5b50565b600081519050620001cb81620001a0565b92915050565b60008060408385031215620001eb57620001ea6200012c565b5b6000620001fb858286016200017f565b92505060206200020e85828601620001ba565b9150509250929050565b600082825260208201905092915050565b7f5374616b696e67203a207a65726f20746f6b656e206164647265737320000000600082015250565b600062000261601d8362000218565b91506200026e8262000229565b602082019050919050565b60006020820190508181036000830152620002948162000252565b9050919050565b60805161166e620002cc600039600081816104e7015281816106d4015281816108080152610954015261166e6000f3fe608060405234801561001057600080fd5b50600436106100f55760003560e01c80639e447fc611610097578063e1a4521811610066578063e1a4521814610240578063e6a69ab81461025e578063f2fde38b1461027c578063f40f0f5214610298576100f5565b80639e447fc6146101b7578063a694fc3a146101d3578063b4a99a4e146101ef578063c34531531461020d576100f5565b8063372500ab116100d3578063372500ab146101555780635b6b431d1461015f57806372f702f31461017b578063817b1cd214610199576100f5565b806304a96d17146100fa57806317849ba01461010457806318e2565914610122575b600080fd5b6101026102c8565b005b61010c61039c565b6040516101199190610e6f565b60405180910390f35b61013c60048036038101906101379190610eed565b6103a2565b60405161014c9493929190610f1a565b60405180910390f35b61015d610427565b005b61017960048036038101906101749190610f8b565b6105c5565b005b610183610806565b6040516101909190611017565b60405180910390f35b6101a161082a565b6040516101ae9190610e6f565b60405180910390f35b6101d160048036038101906101cc9190610f8b565b610830565b005b6101ed60048036038101906101e89190610f8b565b610903565b005b6101f7610af9565b6040516102049190611041565b60405180910390f35b61022760048036038101906102229190610eed565b610b1d565b6040516102379493929190610f1a565b60405180910390f35b610248610ba6565b6040516102559190610e6f565b60405180910390f35b610266610bac565b6040516102739190610e6f565b60405180910390f35b61029660048036038101906102919190610eed565b610bb4565b005b6102b260048036038101906102ad9190610eed565b610cf4565b6040516102bf9190610e6f565b60405180910390f35b60008054906101000a900473ffffffffffffffffffffffffffffffffffffffff1673ffffffffffffffffffffffffffffffffffffffff163373ffffffffffffffffffffffffffffffffffffffff1614610356576040517f08c379a000000000000000000000000000000000000000000000000000000000815260040161034d906110b9565b60405180910390fd5b7f45e1b857394f54806156e6c3c35b79213af3de735bf9b1832622d802aa5ff918600154600060405161038a929190611114565b60405180910390a16000600181905550565b60015481565b6000806000806000600260008773ffffffffffffffffffffffffffffffffffffffff1673ffffffffffffffffffffffffffffffffffffffff16815260200190815260200160002090508060000154945061040481600001548260020154610d67565b8160030154610413919061116c565b935060015492506003549150509193509193565b3361043181610dd4565b6000600260003373ffffffffffffffffffffffffffffffffffffffff1673ffffffffffffffffffffffffffffffffffffffff1681526020019081526020016000209050600081600301549050600081116104c0576040517f08c379a00000000000000000000000000000000000000000000000000000000081526004016104b7906111ec565b60405180910390fd5b60008260030181905550808260010160008282546104de919061116c565b925050819055507f000000000000000000000000000000000000000000000000000000000000000073ffffffffffffffffffffffffffffffffffffffff166340c10f1933836040518363ffffffff1660e01b815260040161054092919061120c565b600060405180830381600087803b15801561055a57600080fd5b505af115801561056e573d6000803e3d6000fd5b505050503373ffffffffffffffffffffffffffffffffffffffff167ffc30cddea38e2bf4d6ea7d3f9ed3b6ad7f176419f4963bd81318067a4aee73fe826040516105b89190610e6f565b60405180910390a2505050565b336105cf81610dd4565b6000600260003373ffffffffffffffffffffffffffffffffffffffff1673ffffffffffffffffffffffffffffffffffffffff168152602001908152602001600020905060008311610655576040517f08c379a000000000000000000000000000000000000000000000000000000000815260040161064c906112a7565b60405180910390fd5b828160000154101561069c576040517f08c379a000000000000000000000000000000000000000000000000000000000815260040161069390611339565b60405180910390fd5b828160000160008282546106b09190611359565b9250508190555082600360008282546106c99190611359565b9250508190555060007f000000000000000000000000000000000000000000000000000000000000000073ffffffffffffffffffffffffffffffffffffffff1663a9059cbb33866040518363ffffffff1660e01b815260040161072d92919061120c565b6020604051808303816000875af115801561074c573d6000803e3d6000fd5b505050506040513d601f19601f8201168201806040525081019061077091906113c5565b9050806107b2576040517f08c379a00000000000000000000000000000000000000000000000000000000081526004016107a99061143e565b60405180910390fd5b3373ffffffffffffffffffffffffffffffffffffffff167f7084f5476618d8e60b11ef0d7d3f06914655adb8793e28ff7f018d4c76d505d5856040516107f89190610e6f565b60405180910390a250505050565b7f000000000000000000000000000000000000000000000000000000000000000081565b60035481565b60008054906101000a900473ffffffffffffffffffffffffffffffffffffffff1673ffffffffffffffffffffffffffffffffffffffff163373ffffffffffffffffffffffffffffffffffffffff16146108be576040517f08c379a00000000000000000000000000000000000000000000000000000000081526004016108b5906110b9565b60405180910390fd5b7f45e1b857394f54806156e6c3c35b79213af3de735bf9b1832622d802aa5ff918600154826040516108f192919061145e565b60405180910390a18060018190555050565b3361090d81610dd4565b60008211610950576040517f08c379a0000000000000000000000000000000000000000000000000000000008152600401610947906112a7565b60405180910390fd5b60007f000000000000000000000000000000000000000000000000000000000000000073ffffffffffffffffffffffffffffffffffffffff166323b872dd3330866040518463ffffffff1660e01b81526004016109af93929190611487565b6020604051808303816000875af11580156109ce573d6000803e3d6000fd5b505050506040513d601f19601f820116820180604052508101906109f291906113c5565b905080610a34576040517f08c379a0000000000000000000000000000000000000000000000000000000008152600401610a2b9061150a565b60405180910390fd5b82600260003373ffffffffffffffffffffffffffffffffffffffff1673ffffffffffffffffffffffffffffffffffffffff1681526020019081526020016000206000016000828254610a86919061116c565b925050819055508260036000828254610a9f919061116c565b925050819055503373ffffffffffffffffffffffffffffffffffffffff167f9e71bc8eea02a63969f509818f2dafb9254532904319f9dbda79b67bd34a5f3d84604051610aec9190610e6f565b60405180910390a2505050565b60008054906101000a900473ffffffffffffffffffffffffffffffffffffffff1681565b6000806000806000600260008773ffffffffffffffffffffffffffffffffffffffff1673ffffffffffffffffffffffffffffffffffffffff1681526020019081526020016000209050806000015481600101548260020154610b8784600001548560020154610d67565b8460030154610b96919061116c565b9450945094509450509193509193565b61271081565b6301e1338081565b60008054906101000a900473ffffffffffffffffffffffffffffffffffffffff1673ffffffffffffffffffffffffffffffffffffffff163373ffffffffffffffffffffffffffffffffffffffff1614610c42576040517f08c379a0000000000000000000000000000000000000000000000000000000008152600401610c39906110b9565b60405180910390fd5b600073ffffffffffffffffffffffffffffffffffffffff168173ffffffffffffffffffffffffffffffffffffffff1603610cb1576040517f08c379a0000000000000000000000000000000000000000000000000000000008152600401610ca890611576565b60405180910390fd5b806000806101000a81548173ffffffffffffffffffffffffffffffffffffffff021916908373ffffffffffffffffffffffffffffffffffffffff16021790555050565b600080600260008473ffffffffffffffffffffffffffffffffffffffff1673ffffffffffffffffffffffffffffffffffffffff16815260200190815260200160002090506000610d4c82600001548360020154610d67565b9050808260030154610d5e919061116c565b92505050919050565b600080831480610d775750600082145b15610d855760009050610dce565b60008242610d939190611359565b90506127106301e13380610da79190611596565b8160015486610db69190611596565b610dc09190611596565b610dca9190611607565b9150505b92915050565b6000600260008373ffffffffffffffffffffffffffffffffffffffff1673ffffffffffffffffffffffffffffffffffffffff16815260200190815260200160002090506000610e2b82600001548360020154610d67565b905080826003016000828254610e41919061116c565b92505081905550428260020181905550505050565b6000819050919050565b610e6981610e56565b82525050565b6000602082019050610e846000830184610e60565b92915050565b600080fd5b600073ffffffffffffffffffffffffffffffffffffffff82169050919050565b6000610eba82610e8f565b9050919050565b610eca81610eaf565b8114610ed557600080fd5b50565b600081359050610ee781610ec1565b92915050565b600060208284031215610f0357610f02610e8a565b5b6000610f1184828501610ed8565b91505092915050565b6000608082019050610f2f6000830187610e60565b610f3c6020830186610e60565b610f496040830185610e60565b610f566060830184610e60565b95945050505050565b610f6881610e56565b8114610f7357600080fd5b50565b600081359050610f8581610f5f565b92915050565b600060208284031215610fa157610fa0610e8a565b5b6000610faf84828501610f76565b91505092915050565b6000819050919050565b6000610fdd610fd8610fd384610e8f565b610fb8565b610e8f565b9050919050565b6000610fef82610fc2565b9050919050565b600061100182610fe4565b9050919050565b61101181610ff6565b82525050565b600060208201905061102c6000830184611008565b92915050565b61103b81610eaf565b82525050565b60006020820190506110566000830184611032565b92915050565b600082825260208201905092915050565b7f5374616b696e673a2063616c6c6572206973206e6f74206f776e657200000000600082015250565b60006110a3601c8361105c565b91506110ae8261106d565b602082019050919050565b600060208201905081810360008301526110d281611096565b9050919050565b6000819050919050565b60006110fe6110f96110f4846110d9565b610fb8565b610e56565b9050919050565b61110e816110e3565b82525050565b60006040820190506111296000830185610e60565b6111366020830184611105565b9392505050565b7f4e487b7100000000000000000000000000000000000000000000000000000000600052601160045260246000fd5b600061117782610e56565b915061118283610e56565b925082820190508082111561119a5761119961113d565b5b92915050565b7f5374616b696e673a206e6f207265776172647320746f20636c61696d00000000600082015250565b60006111d6601c8361105c565b91506111e1826111a0565b602082019050919050565b60006020820190508181036000830152611205816111c9565b9050919050565b60006040820190506112216000830185611032565b61122e6020830184610e60565b9392505050565b7f5374616b696e67203a20616d6f756e74206d757374206265206772656174657260008201527f207468616e203000000000000000000000000000000000000000000000000000602082015250565b600061129160278361105c565b915061129c82611235565b604082019050919050565b600060208201905081810360008301526112c081611284565b9050919050565b7f5374616b696e67203a20696e73756666696369656e74207374616b656420626160008201527f6c616e6365000000000000000000000000000000000000000000000000000000602082015250565b600061132360258361105c565b915061132e826112c7565b604082019050919050565b6000602082019050818103600083015261135281611316565b9050919050565b600061136482610e56565b915061136f83610e56565b92508282039050818111156113875761138661113d565b5b92915050565b60008115159050919050565b6113a28161138d565b81146113ad57600080fd5b50565b6000815190506113bf81611399565b92915050565b6000602082840312156113db576113da610e8a565b5b60006113e9848285016113b0565b91505092915050565b7f5374616b696e673a207472616e73666572206661696c65640000000000000000600082015250565b600061142860188361105c565b9150611433826113f2565b602082019050919050565b600060208201905081810360008301526114578161141b565b9050919050565b60006040820190506114736000830185610e60565b6114806020830184610e60565b9392505050565b600060608201905061149c6000830186611032565b6114a96020830185611032565b6114b66040830184610e60565b949350505050565b7f5374616b696e67203a207472616e7366657246726f6d206661696c6564000000600082015250565b60006114f4601d8361105c565b91506114ff826114be565b602082019050919050565b60006020820190508181036000830152611523816114e7565b9050919050565b7f5374616b696e673a207a65726f20616464726573730000000000000000000000600082015250565b600061156060158361105c565b915061156b8261152a565b602082019050919050565b6000602082019050818103600083015261158f81611553565b9050919050565b60006115a182610e56565b91506115ac83610e56565b92508282026115ba81610e56565b915082820484148315176115d1576115d061113d565b5b5092915050565b7f4e487b7100000000000000000000000000000000000000000000000000000000600052601260045260246000fd5b600061161282610e56565b915061161d83610e56565b92508261162d5761162c6115d8565b5b82820490509291505056fea2646970667358221220ac5273431c23a92247067d79521a02bfd0116a5641ad38e8c7a4102d1419500464736f6c63430008130033",
  "linkReferences": {},
  "deployedLinkReferences": {}
}