{
  "_format": "hh-sol-artifact-1",
  "contractName": "StakingContract",
  "sourceName": "contracts/StakingContract .sol",
  "abi": [
    {
      "inputs": [
        {
          "internalType": "address",
          "name": "_token",
          "type": "address"
        },
        {
          "internalType": "uint256",
          "name": "_rewardRateBPS",
          "type": "uint256"
        }
      ],
      "stateMutability": "nonpayable",
      "type": "constructor"
    },
    {
      "anonymous": false,
      "inputs": [
        {
          "indexed": false,
          "internalType": "uint256",
          "name": "oldRate",
          "type": "uint256"
        },
        {
          "indexed": false,
          "internalType": "uint256",
          "name": "newRate",
          "type": "uint256"
        }
      ],
      "name": "RewardRateSet",
      "type": "event"
    },
    {
      "anonymous": false,
      "inputs": [
        {
          "indexed": true,
          "internalType": "address",
          "name": "user",
          "type": "address"
        },
        {
          "indexed": false,
          "internalType": "uint256",
          "name": "reward",
          "type": "uint256"
        }
      ],
      "name": "RewardsClaimed",
      "type": "event"
    },
    {
      "anonymous": false,
      "inputs": [
        {
          "indexed": true,
          "internalType": "address",
          "name": "user",
          "type": "address"
        },
        {
          "indexed": false,
          "internalType": "uint256",
          "name": "amount",
          "type": "uint256"
        }
      ],
      "name": "Staked",
      "type": "event"
    },
    {
      "anonymous": false,
      "inputs": [
        {
          "indexed": true,
          "internalType": "address",
          "name": "user",
          "type": "address"
        },
        {
          "indexed": false,
          "internalType": "uint256",
          "name": "amount",
          "type": "uint256"
        }
      ],
      "name": "Withdrawn",
      "type": "event"
    },
    {
      "inputs": [],
      "name": "BPS_DENOMINATOR",
      "outputs": [
        {
          "internalType": "uint256",
          "name": "",
          "type": "uint256"
        }
      ],
      "stateMutability": "view",
      "type": "function"
    },
    {
      "inputs": [],
      "name": "Owner",
      "outputs": [
        {
          "internalType": "address",
          "name": "",
          "type": "address"
        }
      ],
      "stateMutability": "view",
      "type": "function"
    },
    {
      "inputs": [],
      "name": "SECONDS_PER_YEAR",
      "outputs": [
        {
          "internalType": "uint256",
          "name": "",
          "type": "uint256"
        }
      ],
      "stateMutability": "view",
      "type": "function"
    },
    {
      "inputs": [
        {
          "internalType": "uint256",
          "name": "amount",
          "type": "uint256"
        }
      ],
      "name": "Withdraw",
      "outputs": [],
      "stateMutability": "nonpayable",
      "type": "function"
    },
    {
      "inputs": [],
      "name": "claimRewards",
      "outputs": [],
      "stateMutability": "nonpayable",
      "type": "function"
    },
    {
      "inputs": [
        {
          "internalType": "address",
          "name": "user",
          "type": "address"
        }
      ],
      "name": "getDashboardData",
      "outputs": [
        {
          "internalType": "uint256",
          "name": "stakeAmount",
          "type": "uint256"
        },
        {
          "internalType": "uint256",
          "name": "availableReward",
          "type": "uint256"
        },
        {
          "internalType": "uint256",
          "name": "currentAPR_BPS",
          "type": "uint256"
        },
        {
          "internalType": "uint256",
          "name": "totalStakedGlobal",
          "type": "uint256"
        }
      ],
      "stateMutability": "view",
      "type": "function"
    },
    {
      "inputs": [
        {
          "internalType": "address",
          "name": "user",
          "type": "address"
        }
      ],
      "name": "getStakeInfo",
      "outputs": [
        {
          "internalType": "uint256",
          "name": "stakeAmount",
          "type": "uint256"
        },
        {
          "internalType": "uint256",
          "name": "rewardDebt",
          "type": "uint256"
        },
        {
          "internalType": "uint256",
          "name": "lastUpdateTime",
          "type": "uint256"
        },
        {
          "internalType": "uint256",
          "name": "pendingRewards",
          "type": "uint256"
        }
      ],
      "stateMutability": "view",
      "type": "function"
    },
    {
      "inputs": [],
      "name": "pauseRewards",
      "outputs": [],
      "stateMutability": "nonpayable",
      "type": "function"
    },
    {
      "inputs": [
        {
          "internalType": "address",
          "name": "user",
          "type": "address"
        }
      ],
      "name": "pendingReward",
      "outputs": [
        {
          "internalType": "uint256",
          "name": "",
          "type": "uint256"
        }
      ],
      "stateMutability": "view",
      "type": "function"
    },
    {
      "inputs": [],
      "name": "rewardRateBPS",
      "outputs": [
        {
          "internalType": "uint256",
          "name": "",
          "type": "uint256"
        }
      ],
      "stateMutability": "view",
      "type": "function"
    },
    {
      "inputs": [
        {
          "internalType": "uint256",
          "name": "newRateBPS",
          "type": "uint256"
        }
      ],
      "name": "setRewardRate",
      "outputs": [],
      "stateMutability": "nonpayable",
      "type": "function"
    },
    {
      "inputs": [
        {
          "internalType": "uint256",
          "name": "amount",
          "type": "uint256"
        }
      ],
      "name": "stake",
      "outputs": [],
      "stateMutability": "nonpayable",
      "type": "function"
    },
    {
      "inputs": [],
      "name": "stakingToken",
      "outputs": [
        {
          "internalType": "contract IERC20",
          "name": "",
          "type": "address"
        }
      ],
      "stateMutability": "view",
      "type": "function"
    },
    {
      "inputs": [],
      "name": "totalStaked",
      "outputs": [
        {
          "internalType": "uint256",
          "name": "",
          "type": "uint256"
        }
      ],
      "stateMutability": "view",
      "type": "function"
    },
    {
      "inputs": [
        {
          "internalType": "address",
          "name": "newOwner",
          "type": "address"
        }
      ],
      "name": "transferOwnership",
      "outputs": [],
      "stateMutability": "nonpayable",
      "type": "function"
    }
  ],
  "bytecode": "0x60a06040523480156200001157600080fd5b5060405162001909380380620019098339818101604052810190620000379190620001d1565b600073ffffffffffffffffffffffffffffffffffffffff168273ffffffffffffffffffffffffffffffffffffffff1603620000a9576040517f08c379a0000000000000000000000000000000000000000000000000000000008152600401620000a09062000279565b60405180910390fd5b8173ffffffffffffffffffffffffffffffffffffffff1660808173ffffffffffffffffffffffffffffffffffffffff168152505080600181905550336000806101000a81548173ffffffffffffffffffffffffffffffffffffffff021916908373ffffffffffffffffffffffffffffffffffffffff16021790555050506200029b565b600080fd5b600073ffffffffffffffffffffffffffffffffffffffff82169050919050565b60006200015e8262000131565b9050919050565b620001708162000151565b81146200017c57600080fd5b50565b600081519050620001908162000165565b92915050565b6000819050919050565b620001ab8162000196565b8114620001b757600080fd5b50565b600081519050620001cb81620001a0565b92915050565b60008060408385031215620001eb57620001ea6200012c565b5b6000620001fb858286016200017f565b92505060206200020e85828601620001ba565b9150509250929050565b600082825260208201905092915050565b7f5374616b696e67203a207a65726f20746f6b656e206164647265737320000000600082015250565b600062000261601d8362000218565b91506200026e8262000229565b602082019050919050565b60006020820190508181036000830152620002948162000252565b9050919050565b60805161163d620002cc600039600081816104fc015281816106d70152818161080b015261099a015261163d6000f3fe608060405234801561001057600080fd5b50600436106100f55760003560e01c80639e447fc611610097578063e1a4521811610066578063e1a4521814610240578063e6a69ab81461025e578063f2fde38b1461027c578063f40f0f5214610298576100f5565b80639e447fc6146101b7578063a694fc3a146101d3578063b4a99a4e146101ef578063c34531531461020d576100f5565b8063372500ab116100d3578063372500ab146101555780635b6b431d1461015f57806372f702f31461017b578063817b1cd214610199576100f5565b806304a96d17146100fa57806317849ba01461010457806318e2565914610122575b600080fd5b6101026102c8565b005b61010c61039c565b6040516101199190610ee5565b60405180910390f35b61013c60048036038101906101379190610f63565b6103a2565b60405161014c9493929190610f90565b60405180910390f35b61015d610445565b005b61017960048036038101906101749190611001565b6105da565b005b610183610809565b604051610190919061108d565b60405180910390f35b6101a161082d565b6040516101ae9190610ee5565b60405180910390f35b6101d160048036038101906101cc9190611001565b610833565b005b6101ed60048036038101906101e89190611001565b610906565b005b6101f7610af0565b60405161020491906110b7565b60405180910390f35b61022760048036038101906102229190610f63565b610b14565b6040516102379493929190610f90565b60405180910390f35b610248610bdc565b6040516102559190610ee5565b60405180910390f35b610266610be2565b6040516102739190610ee5565b60405180910390f35b61029660048036038101906102919190610f63565b610bea565b005b6102b260048036038101906102ad9190610f63565b610d2a565b6040516102bf9190610ee5565b60405180910390f35b60008054906101000a900473ffffffffffffffffffffffffffffffffffffffff1673ffffffffffffffffffffffffffffffffffffffff163373ffffffffffffffffffffffffffffffffffffffff1614610356576040517f08c379a000000000000000000000000000000000000000000000000000000000815260040161034d9061112f565b60405180910390fd5b7f45e1b857394f54806156e6c3c35b79213af3de735bf9b1832622d802aa5ff918600154600060405161038a92919061118a565b60405180910390a16000600181905550565b60015481565b6000806000806000600260008773ffffffffffffffffffffffffffffffffffffffff1673ffffffffffffffffffffffffffffffffffffffff16815260200190815260200160002090508060000154945061042281600001548260030160009054906101000a900467ffffffffffffffff1667ffffffffffffffff16610dbb565b816002015461043191906111e2565b935060015492506003549150509193509193565b3361044f81610e09565b6000600260003373ffffffffffffffffffffffffffffffffffffffff1673ffffffffffffffffffffffffffffffffffffffff1681526020019081526020016000209050600081600201549050600081116104de576040517f08c379a00000000000000000000000000000000000000000000000000000000081526004016104d590611262565b60405180910390fd5b600082600201819055508082600101600082825401925050819055507f000000000000000000000000000000000000000000000000000000000000000073ffffffffffffffffffffffffffffffffffffffff166340c10f1933836040518363ffffffff1660e01b8152600401610555929190611282565b600060405180830381600087803b15801561056f57600080fd5b505af1158015610583573d6000803e3d6000fd5b505050503373ffffffffffffffffffffffffffffffffffffffff167ffc30cddea38e2bf4d6ea7d3f9ed3b6ad7f176419f4963bd81318067a4aee73fe826040516105cd9190610ee5565b60405180910390a2505050565b336105e481610e09565b6000600260003373ffffffffffffffffffffffffffffffffffffffff1673ffffffffffffffffffffffffffffffffffffffff16815260200190815260200160002090506000831161066a576040517f08c379a00000000000000000000000000000000000000000000000000000000081526004016106619061131d565b60405180910390fd5b82816000015410156106b1576040517f08c379a00000000000000000000000000000000000000000000000000000000081526004016106a8906113af565b60405180910390fd5b8281600001600082825403925050819055508260036000828254039250508190555060007f000000000000000000000000000000000000000000000000000000000000000073ffffffffffffffffffffffffffffffffffffffff1663a9059cbb33866040518363ffffffff1660e01b8152600401610730929190611282565b6020604051808303816000875af115801561074f573d6000803e3d6000fd5b505050506040513d601f19601f820116820180604052508101906107739190611407565b9050806107b5576040517f08c379a00000000000000000000000000000000000000000000000000000000081526004016107ac90611480565b60405180910390fd5b3373ffffffffffffffffffffffffffffffffffffffff167f7084f5476618d8e60b11ef0d7d3f06914655adb8793e28ff7f018d4c76d505d5856040516107fb9190610ee5565b60405180910390a250505050565b7f000000000000000000000000000000000000000000000000000000000000000081565b60035481565b60008054906101000a900473ffffffffffffffffffffffffffffffffffffffff1673ffffffffffffffffffffffffffffffffffffffff163373ffffffffffffffffffffffffffffffffffffffff16146108c1576040517f08c379a00000000000000000000000000000000000000000000000000000000081526004016108b89061112f565b60405180910390fd5b7f45e1b857394f54806156e6c3c35b79213af3de735bf9b1832622d802aa5ff918600154826040516108f49291906114a0565b60405180910390a18060018190555050565b3361091081610e09565b60008211610953576040517f08c379a000000000000000000000000000000000000000000000000000000000815260040161094a9061131d565b60405180910390fd5b6000600260003373ffffffffffffffffffffffffffffffffffffffff1673ffffffffffffffffffffffffffffffffffffffff168152602001908152602001600020905060007f000000000000000000000000000000000000000000000000000000000000000073ffffffffffffffffffffffffffffffffffffffff166323b872dd3330876040518463ffffffff1660e01b81526004016109f5939291906114c9565b6020604051808303816000875af1158015610a14573d6000803e3d6000fd5b505050506040513d601f19601f82011682018060405250810190610a389190611407565b905080610a7a576040517f08c379a0000000000000000000000000000000000000000000000000000000008152600401610a719061154c565b60405180910390fd5b838260000160008282540192505081905550836003600082825401925050819055503373ffffffffffffffffffffffffffffffffffffffff167f9e71bc8eea02a63969f509818f2dafb9254532904319f9dbda79b67bd34a5f3d85604051610ae29190610ee5565b60405180910390a250505050565b60008054906101000a900473ffffffffffffffffffffffffffffffffffffffff1681565b6000806000806000600260008773ffffffffffffffffffffffffffffffffffffffff1673ffffffffffffffffffffffffffffffffffffffff1681526020019081526020016000209050806000015481600101548260030160009054906101000a900467ffffffffffffffff16610bb084600001548560030160009054906101000a900467ffffffffffffffff1667ffffffffffffffff16610dbb565b8460020154610bbf91906111e2565b8167ffffffffffffffff1691509450945094509450509193509193565b61271081565b6301e1338081565b60008054906101000a900473ffffffffffffffffffffffffffffffffffffffff1673ffffffffffffffffffffffffffffffffffffffff163373ffffffffffffffffffffffffffffffffffffffff1614610c78576040517f08c379a0000000000000000000000000000000000000000000000000000000008152600401610c6f9061112f565b60405180910390fd5b600073ffffffffffffffffffffffffffffffffffffffff168173ffffffffffffffffffffffffffffffffffffffff1603610ce7576040517f08c379a0000000000000000000000000000000000000000000000000000000008152600401610cde906115b8565b60405180910390fd5b806000806101000a81548173ffffffffffffffffffffffffffffffffffffffff021916908373ffffffffffffffffffffffffffffffffffffffff16021790555050565b600080600260008473ffffffffffffffffffffffffffffffffffffffff1673ffffffffffffffffffffffffffffffffffffffff16815260200190815260200160002090506000610da082600001548360030160009054906101000a900467ffffffffffffffff1667ffffffffffffffff16610dbb565b9050808260020154610db291906111e2565b92505050919050565b600080831480610dcb5750600082145b15610dd95760009050610e03565b600082420390506127106301e13380028160015486020281610dfe57610dfd6115d8565b5b049150505b92915050565b6000600260008373ffffffffffffffffffffffffffffffffffffffff1673ffffffffffffffffffffffffffffffffffffffff16815260200190815260200160002090506000610e7e82600001548360030160009054906101000a900467ffffffffffffffff1667ffffffffffffffff16610dbb565b90506000811115610e9c578082600201600082825401925050819055505b428260030160006101000a81548167ffffffffffffffff021916908367ffffffffffffffff160217905550505050565b6000819050919050565b610edf81610ecc565b82525050565b6000602082019050610efa6000830184610ed6565b92915050565b600080fd5b600073ffffffffffffffffffffffffffffffffffffffff82169050919050565b6000610f3082610f05565b9050919050565b610f4081610f25565b8114610f4b57600080fd5b50565b600081359050610f5d81610f37565b92915050565b600060208284031215610f7957610f78610f00565b5b6000610f8784828501610f4e565b91505092915050565b6000608082019050610fa56000830187610ed6565b610fb26020830186610ed6565b610fbf6040830185610ed6565b610fcc6060830184610ed6565b95945050505050565b610fde81610ecc565b8114610fe957600080fd5b50565b600081359050610ffb81610fd5565b92915050565b60006020828403121561101757611016610f00565b5b600061102584828501610fec565b91505092915050565b6000819050919050565b600061105361104e61104984610f05565b61102e565b610f05565b9050919050565b600061106582611038565b9050919050565b60006110778261105a565b9050919050565b6110878161106c565b82525050565b60006020820190506110a2600083018461107e565b92915050565b6110b181610f25565b82525050565b60006020820190506110cc60008301846110a8565b92915050565b600082825260208201905092915050565b7f5374616b696e673a2063616c6c6572206973206e6f74206f776e657200000000600082015250565b6000611119601c836110d2565b9150611124826110e3565b602082019050919050565b600060208201905081810360008301526111488161110c565b9050919050565b6000819050919050565b600061117461116f61116a8461114f565b61102e565b610ecc565b9050919050565b61118481611159565b82525050565b600060408201905061119f6000830185610ed6565b6111ac602083018461117b565b9392505050565b7f4e487b7100000000000000000000000000000000000000000000000000000000600052601160045260246000fd5b60006111ed82610ecc565b91506111f883610ecc565b92508282019050808211156112105761120f6111b3565b5b92915050565b7f5374616b696e673a206e6f207265776172647320746f20636c61696d00000000600082015250565b600061124c601c836110d2565b915061125782611216565b602082019050919050565b6000602082019050818103600083015261127b8161123f565b9050919050565b600060408201905061129760008301856110a8565b6112a46020830184610ed6565b9392505050565b7f5374616b696e67203a20616d6f756e74206d757374206265206772656174657260008201527f207468616e203000000000000000000000000000000000000000000000000000602082015250565b60006113076027836110d2565b9150611312826112ab565b604082019050919050565b60006020820190508181036000830152611336816112fa565b9050919050565b7f5374616b696e67203a20696e73756666696369656e74207374616b656420626160008201527f6c616e6365000000000000000000000000000000000000000000000000000000602082015250565b60006113996025836110d2565b91506113a48261133d565b604082019050919050565b600060208201905081810360008301526113c88161138c565b9050919050565b60008115159050919050565b6113e4816113cf565b81146113ef57600080fd5b50565b600081519050611401816113db565b92915050565b60006020828403121561141d5761141c610f00565b5b600061142b848285016113f2565b91505092915050565b7f5374616b696e673a207472616e73666572206661696c65640000000000000000600082015250565b600061146a6018836110d2565b915061147582611434565b602082019050919050565b600060208201905081810360008301526114998161145d565b9050919050565b60006040820190506114b56000830185610ed6565b6114c26020830184610ed6565b9392505050565b60006060820190506114de60008301866110a8565b6114eb60208301856110a8565b6114f86040830184610ed6565b949350505050565b7f5374616b696e67203a207472616e7366657246726f6d206661696c6564000000600082015250565b6000611536601d836110d2565b915061154182611500565b602082019050919050565b6000602082019050818103600083015261156581611529565b9050919050565b7f5374616b696e673a207a65726f20616464726573730000000000000000000000600082015250565b60006115a26015836110d2565b91506115ad8261156c565b602082019050919050565b600060208201905081810360008301526115d181611595565b9050919050565b7f4e487b7100000000000000000000000000000000000000000000000000000000600052601260045260246000fdfea2646970667358221220f8052657316d2c1ec79f5c0d0ceac05b6f93805213c382331ebbcfe449141dc264736f6c63430008130033",
  "linkReferences": {},
  "deployedLinkReferences": {}
}